{
  "contractName": "ECsecp256k1",
  "abi": [
    {
      "constant": true,
      "inputs": [
        {
          "name": "x0",
          "type": "uint256"
        },
        {
          "name": "y0",
          "type": "uint256"
        }
      ],
      "name": "toProjectivePoint",
      "outputs": [
        {
          "name": "P",
          "type": "uint256[3]"
        }
      ],
      "payable": false,
      "stateMutability": "pure",
      "type": "function"
    },
    {
      "constant": true,
      "inputs": [
        {
          "name": "x1",
          "type": "uint256"
        },
        {
          "name": "y1",
          "type": "uint256"
        },
        {
          "name": "x2",
          "type": "uint256"
        },
        {
          "name": "y2",
          "type": "uint256"
        }
      ],
      "name": "addAndReturnProjectivePoint",
      "outputs": [
        {
          "name": "P",
          "type": "uint256[3]"
        }
      ],
      "payable": false,
      "stateMutability": "pure",
      "type": "function"
    },
    {
      "constant": true,
      "inputs": [
        {
          "name": "x0",
          "type": "uint256"
        },
        {
          "name": "y0",
          "type": "uint256"
        },
        {
          "name": "z0",
          "type": "uint256"
        }
      ],
      "name": "toAffinePoint",
      "outputs": [
        {
          "name": "x1",
          "type": "uint256"
        },
        {
          "name": "y1",
          "type": "uint256"
        }
      ],
      "payable": false,
      "stateMutability": "pure",
      "type": "function"
    },
    {
      "constant": true,
      "inputs": [],
      "name": "zeroProj",
      "outputs": [
        {
          "name": "x",
          "type": "uint256"
        },
        {
          "name": "y",
          "type": "uint256"
        },
        {
          "name": "z",
          "type": "uint256"
        }
      ],
      "payable": false,
      "stateMutability": "pure",
      "type": "function"
    },
    {
      "constant": true,
      "inputs": [],
      "name": "zeroAffine",
      "outputs": [
        {
          "name": "x",
          "type": "uint256"
        },
        {
          "name": "y",
          "type": "uint256"
        }
      ],
      "payable": false,
      "stateMutability": "pure",
      "type": "function"
    },
    {
      "constant": true,
      "inputs": [
        {
          "name": "x0",
          "type": "uint256"
        },
        {
          "name": "y0",
          "type": "uint256"
        }
      ],
      "name": "isZeroCurve",
      "outputs": [
        {
          "name": "isZero",
          "type": "bool"
        }
      ],
      "payable": false,
      "stateMutability": "pure",
      "type": "function"
    },
    {
      "constant": true,
      "inputs": [
        {
          "name": "x",
          "type": "uint256"
        },
        {
          "name": "y",
          "type": "uint256"
        }
      ],
      "name": "isOnCurve",
      "outputs": [
        {
          "name": "",
          "type": "bool"
        }
      ],
      "payable": false,
      "stateMutability": "pure",
      "type": "function"
    },
    {
      "constant": true,
      "inputs": [
        {
          "name": "x0",
          "type": "uint256"
        },
        {
          "name": "y0",
          "type": "uint256"
        },
        {
          "name": "z0",
          "type": "uint256"
        }
      ],
      "name": "twiceProj",
      "outputs": [
        {
          "name": "x1",
          "type": "uint256"
        },
        {
          "name": "y1",
          "type": "uint256"
        },
        {
          "name": "z1",
          "type": "uint256"
        }
      ],
      "payable": false,
      "stateMutability": "pure",
      "type": "function"
    },
    {
      "constant": true,
      "inputs": [
        {
          "name": "x0",
          "type": "uint256"
        },
        {
          "name": "y0",
          "type": "uint256"
        },
        {
          "name": "z0",
          "type": "uint256"
        },
        {
          "name": "x1",
          "type": "uint256"
        },
        {
          "name": "y1",
          "type": "uint256"
        },
        {
          "name": "z1",
          "type": "uint256"
        }
      ],
      "name": "addProj",
      "outputs": [
        {
          "name": "x2",
          "type": "uint256"
        },
        {
          "name": "y2",
          "type": "uint256"
        },
        {
          "name": "z2",
          "type": "uint256"
        }
      ],
      "payable": false,
      "stateMutability": "pure",
      "type": "function"
    },
    {
      "constant": true,
      "inputs": [
        {
          "name": "x0",
          "type": "uint256"
        },
        {
          "name": "y0",
          "type": "uint256"
        },
        {
          "name": "x1",
          "type": "uint256"
        },
        {
          "name": "y1",
          "type": "uint256"
        }
      ],
      "name": "add",
      "outputs": [
        {
          "name": "",
          "type": "uint256"
        },
        {
          "name": "",
          "type": "uint256"
        }
      ],
      "payable": false,
      "stateMutability": "pure",
      "type": "function"
    },
    {
      "constant": true,
      "inputs": [
        {
          "name": "x0",
          "type": "uint256"
        },
        {
          "name": "y0",
          "type": "uint256"
        }
      ],
      "name": "twice",
      "outputs": [
        {
          "name": "",
          "type": "uint256"
        },
        {
          "name": "",
          "type": "uint256"
        }
      ],
      "payable": false,
      "stateMutability": "pure",
      "type": "function"
    },
    {
      "constant": true,
      "inputs": [
        {
          "name": "x0",
          "type": "uint256"
        },
        {
          "name": "y0",
          "type": "uint256"
        },
        {
          "name": "exp",
          "type": "uint256"
        }
      ],
      "name": "multiplyPowerBase2",
      "outputs": [
        {
          "name": "",
          "type": "uint256"
        },
        {
          "name": "",
          "type": "uint256"
        }
      ],
      "payable": false,
      "stateMutability": "pure",
      "type": "function"
    },
    {
      "constant": true,
      "inputs": [
        {
          "name": "x0",
          "type": "uint256"
        },
        {
          "name": "y0",
          "type": "uint256"
        },
        {
          "name": "scalar",
          "type": "uint256"
        }
      ],
      "name": "multiplyScalar",
      "outputs": [
        {
          "name": "x1",
          "type": "uint256"
        },
        {
          "name": "y1",
          "type": "uint256"
        }
      ],
      "payable": false,
      "stateMutability": "pure",
      "type": "function"
    },
    {
      "constant": true,
      "inputs": [
        {
          "name": "scalar",
          "type": "uint256"
        }
      ],
      "name": "multipleGeneratorByScalar",
      "outputs": [
        {
          "name": "",
          "type": "uint256"
        },
        {
          "name": "",
          "type": "uint256"
        }
      ],
      "payable": false,
      "stateMutability": "pure",
      "type": "function"
    },
    {
      "constant": true,
      "inputs": [
        {
          "name": "messageHash",
          "type": "bytes32"
        },
        {
          "name": "rs",
          "type": "uint256[2]"
        },
        {
          "name": "publicKey",
          "type": "uint256[2]"
        }
      ],
      "name": "validateSignature",
      "outputs": [
        {
          "name": "",
          "type": "bool"
        }
      ],
      "payable": false,
      "stateMutability": "view",
      "type": "function"
    }
  ],
  "bytecode": "0x608060405234801561001057600080fd5b50611bc2806100206000396000f3fe6080604052600436106100d5576000357c01000000000000000000000000000000000000000000000000000000009004806304e960d7146100da57806309d3ef31146101af5780630afb4ddc1461020f5780630b0dbcfa1461026557806314c67060146102c2578063322b24aa146102fb578063675ca04314610365578063713eca28146103cf57806372fb4a14146104645780637ec8da8d146104ce57806384dfba461461054f578063c30cfa2d14610581578063c80edca4146105de578063e022d77c1461064f578063f214aba0146106c3575b600080fd5b3480156100e657600080fd5b50610195600480360360a08110156100fd57600080fd5b810190808035906020019092919080604001906002806020026040519081016040528092919082600260200280828437600081840152601f19601f820116905080830192505050505050919291929080604001906002806020026040519081016040528092919082600260200280828437600081840152601f19601f8201169050808301925050505050509192919290505050610752565b604051808215151515815260200191505060405180910390f35b3480156101bb57600080fd5b506101f2600480360360408110156101d257600080fd5b810190808035906020019092919080359060200190929190505050610a97565b604051808381526020018281526020019250505060405180910390f35b34801561021b57600080fd5b506102486004803603602081101561023257600080fd5b8101908080359060200190929190505050610acb565b604051808381526020018281526020019250505060405180910390f35b34801561027157600080fd5b506102a86004803603604081101561028857600080fd5b810190808035906020019092919080359060200190929190505050610b22565b604051808215151515815260200191505060405180910390f35b3480156102ce57600080fd5b506102d7610cd4565b60405180848152602001838152602001828152602001935050505060405180910390f35b34801561030757600080fd5b506103486004803603606081101561031e57600080fd5b81019080803590602001909291908035906020019092919080359060200190929190505050610cf2565b604051808381526020018281526020019250505060405180910390f35b34801561037157600080fd5b506103b26004803603606081101561038857600080fd5b81019080803590602001909291908035906020019092919080359060200190929190505050610d52565b604051808381526020018281526020019250505060405180910390f35b3480156103db57600080fd5b50610426600480360360808110156103f257600080fd5b8101908080359060200190929190803590602001909291908035906020019092919080359060200190929190505050610dea565b6040518082600360200280838360005b83811015610451578082015181840152602081019050610436565b5050505090500191505060405180910390f35b34801561047057600080fd5b506104b16004803603606081101561048757600080fd5b81019080803590602001909291908035906020019092919080359060200190929190505050610e1f565b604051808381526020018281526020019250505060405180910390f35b3480156104da57600080fd5b50610511600480360360408110156104f157600080fd5b810190808035906020019092919080359060200190929190505050610f35565b6040518082600360200280838360005b8381101561053c578082015181840152602081019050610521565b5050505090500191505060405180910390f35b34801561055b57600080fd5b5061056461103a565b604051808381526020018281526020019250505060405180910390f35b34801561058d57600080fd5b506105c4600480360360408110156105a457600080fd5b81019080803590602001909291908035906020019092919050505061104e565b604051808215151515815260200191505060405180910390f35b3480156105ea57600080fd5b5061062b6004803603606081101561060157600080fd5b81019080803590602001909291908035906020019092919080359060200190929190505050611078565b60405180848152602001838152602001828152602001935050505060405180910390f35b34801561065b57600080fd5b506106a66004803603608081101561067257600080fd5b810190808035906020019092919080359060200190929190803590602001909291908035906020019092919050505061152d565b604051808381526020018281526020019250505060405180910390f35b3480156106cf57600080fd5b5061072e600480360360c08110156106e657600080fd5b81019080803590602001909291908035906020019092919080359060200190929190803590602001909291908035906020019092919080359060200190929190505050611567565b60405180848152602001838152602001828152602001935050505060405180910390f35b60008083600060028110151561076457fe5b602002015114806107a857507ffffffffffffffffffffffffffffffffebaaedce6af48a03bbfd25e8cd03641418360006002811015156107a057fe5b602002015110155b806107c6575060008360016002811015156107bf57fe5b6020020151145b156107d45760009050610a90565b6108048260006002811015156107e657fe5b60200201518360016002811015156107fa57fe5b6020020151610b22565b15156108135760009050610a90565b600080600080600061085888600160028110151561082d57fe5b60200201517ffffffffffffffffffffffffffffffffebaaedce6af48a03bbfd25e8cd0364141611707565b90506108d57f79be667ef9dcbbac55a06295ce870b07029bfcdb2dce28d959f2815b16f817987f483ada7726a3c4655da4fbfc0e1108a8fd17b448a68554199c47d08ffb10d4b87ffffffffffffffffffffffffffffffffebaaedce6af48a03bbfd25e8cd03641418015156108c957fe5b848d6001900409610e1f565b809450819650505061094d8760006002811015156108ef57fe5b602002015188600160028110151561090357fe5b60200201517ffffffffffffffffffffffffffffffffebaaedce6af48a03bbfd25e8cd036414180151561093257fe5b848c600060028110151561094257fe5b602002015109610e1f565b809350819550505061095d611b73565b61096986858786610dea565b9050600081600260038110151561097c57fe5b602002015114156109965760009650505050505050610a90565b60006109d58260026003811015156109aa57fe5b60200201517ffffffffffffffffffffffffffffffffffffffffffffffffffffffffefffffc2f611707565b90507ffffffffffffffffffffffffffffffffffffffffffffffffffffffffefffffc2f801515610a0157fe5b7ffffffffffffffffffffffffffffffffffffffffffffffffffffffffefffffc2f801515610a2b57fe5b828309836000600381101515610a3d57fe5b6020020151099050896000600281101515610a5457fe5b60200201517ffffffffffffffffffffffffffffffffebaaedce6af48a03bbfd25e8cd036414182811515610a8457fe5b06149750505050505050505b9392505050565b6000806000610aa885856001611078565b809350819650829750505050610abf858583610d52565b92509250509250929050565b600080610b197f79be667ef9dcbbac55a06295ce870b07029bfcdb2dce28d959f2815b16f817987f483ada7726a3c4655da4fbfc0e1108a8fd17b448a68554199c47d08ffb10d4b885610e1f565b91509150915091565b60008260001480610b5257507ffffffffffffffffffffffffffffffffffffffffffffffffffffffffefffffc2f83145b80610b5d5750816000145b80610b8757507ffffffffffffffffffffffffffffffffffffffffffffffffffffffffefffffc2f82145b15610b955760009050610cce565b60007ffffffffffffffffffffffffffffffffffffffffffffffffffffffffefffffc2f801515610bc157fe5b838409905060007ffffffffffffffffffffffffffffffffffffffffffffffffffffffffefffffc2f801515610bf257fe5b857ffffffffffffffffffffffffffffffffffffffffffffffffffffffffefffffc2f801515610c1d57fe5b878809099050600080141515610c8a577ffffffffffffffffffffffffffffffffffffffffffffffffffffffffefffffc2f801515610c5757fe5b7ffffffffffffffffffffffffffffffffffffffffffffffffffffffffefffffc2f801515610c8157fe5b60008709820890505b60006007141515610cc6577ffffffffffffffffffffffffffffffffffffffffffffffffffffffffefffffc2f801515610cbf57fe5b6007820890505b808214925050505b92915050565b60008060008060016000829250819150809050925092509250909192565b6000806000859050600085905060006001905060008090505b86811015610d3757610d1e848484611078565b8094508195508296505050508080600101915050610d0b565b50610d43838383610d52565b94509450505050935093915050565b6000806000610d81847ffffffffffffffffffffffffffffffffffffffffffffffffffffffffefffffc2f611707565b90507ffffffffffffffffffffffffffffffffffffffffffffffffffffffffefffffc2f801515610dad57fe5b81870992507ffffffffffffffffffffffffffffffffffffffffffffffffffffffffefffffc2f801515610ddc57fe5b818609915050935093915050565b610df2611b73565b600080610e018787878761152d565b8092508193505050610e138282610f35565b92505050949350505050565b6000806000831415610e3c57610e3361103a565b91509150610f2d565b6001831415610e5057848491509150610f2d565b6002831415610e6c57610e638585610a97565b91509150610f2d565b600085905060008590506000600190506000600190508895508794506000600288811515610e9657fe5b061415610ea557600094508495505b600187908060020a820491505096505b6000871115610f1957610ec9848484611078565b8094508195508296505050506001600288811515610ee357fe5b061415610f0557610ef8848484898986611567565b8093508197508298505050505b600187908060020a82049150509650610eb5565b610f24868683610d52565b95509550505050505b935093915050565b610f3d611b73565b7ffffffffffffffffffffffffffffffffffffffffffffffffffffffffefffffc2f801515610f6757fe5b6001600008816002600381101515610f7b57fe5b6020020181815250507ffffffffffffffffffffffffffffffffffffffffffffffffffffffffefffffc2f801515610fae57fe5b816002600381101515610fbd57fe5b60200201518409816000600381101515610fd357fe5b6020020181815250507ffffffffffffffffffffffffffffffffffffffffffffffffffffffffefffffc2f80151561100657fe5b81600260038110151561101557fe5b6020020151830981600160038110151561102b57fe5b60200201818152505092915050565b600080600080819150809050915091509091565b6000808314801561105f5750600082145b1561106d5760019050611072565b600090505b92915050565b600080600080600080600061108d8a8a61104e565b156110a95761109a610cd4565b96509650965050505050611524565b7ffffffffffffffffffffffffffffffffffffffffffffffffffffffffefffffc2f8015156110d357fe5b888a0992507ffffffffffffffffffffffffffffffffffffffffffffffffffffffffefffffc2f80151561110257fe5b6002840992507ffffffffffffffffffffffffffffffffffffffffffffffffffffffffefffffc2f80151561113257fe5b8a840991507ffffffffffffffffffffffffffffffffffffffffffffffffffffffffefffffc2f80151561116157fe5b89830991507ffffffffffffffffffffffffffffffffffffffffffffffffffffffffefffffc2f80151561119057fe5b6002830991507ffffffffffffffffffffffffffffffffffffffffffffffffffffffffefffffc2f8015156111c057fe5b8a8b0999507ffffffffffffffffffffffffffffffffffffffffffffffffffffffffefffffc2f8015156111ef57fe5b60038b0993507ffffffffffffffffffffffffffffffffffffffffffffffffffffffffefffffc2f80151561121f57fe5b88890997507ffffffffffffffffffffffffffffffffffffffffffffffffffffffffefffffc2f80151561124e57fe5b6000890997507ffffffffffffffffffffffffffffffffffffffffffffffffffffffffefffffc2f80151561127e57fe5b88850893507ffffffffffffffffffffffffffffffffffffffffffffffffffffffffefffffc2f8015156112ad57fe5b84850990507ffffffffffffffffffffffffffffffffffffffffffffffffffffffffefffffc2f8015156112dc57fe5b8260020999507ffffffffffffffffffffffffffffffffffffffffffffffffffffffffefffffc2f80151561130c57fe5b8a7ffffffffffffffffffffffffffffffffffffffffffffffffffffffffefffffc2f03820890507ffffffffffffffffffffffffffffffffffffffffffffffffffffffffefffffc2f80151561135d57fe5b817ffffffffffffffffffffffffffffffffffffffffffffffffffffffffefffffc2f03830899507ffffffffffffffffffffffffffffffffffffffffffffffffffffffffefffffc2f8015156113ae57fe5b8a850999507ffffffffffffffffffffffffffffffffffffffffffffffffffffffffefffffc2f8015156113dd57fe5b838a0998507ffffffffffffffffffffffffffffffffffffffffffffffffffffffffefffffc2f80151561140c57fe5b898a0998507ffffffffffffffffffffffffffffffffffffffffffffffffffffffffefffffc2f80151561143b57fe5b8960020998507ffffffffffffffffffffffffffffffffffffffffffffffffffffffffefffffc2f80151561146b57fe5b897ffffffffffffffffffffffffffffffffffffffffffffffffffffffffefffffc2f038b0895507ffffffffffffffffffffffffffffffffffffffffffffffffffffffffefffffc2f8015156114bc57fe5b81840996507ffffffffffffffffffffffffffffffffffffffffffffffffffffffffefffffc2f8015156114eb57fe5b83840994507ffffffffffffffffffffffffffffffffffffffffffffffffffffffffefffffc2f80151561151a57fe5b8386099450505050505b93509350939050565b60008060006115428787600188886001611567565b809350819850829950505050611559878783610d52565b925092505094509492505050565b600080600080600080600061157c8d8d61104e565b1561159357898989965096509650505050506116fb565b61159d8a8a61104e565b156115b4578c8c8c965096509650505050506116fb565b7ffffffffffffffffffffffffffffffffffffffffffffffffffffffffefffffc2f8015156115de57fe5b888d0993507ffffffffffffffffffffffffffffffffffffffffffffffffffffffffefffffc2f80151561160d57fe5b8b8a0992507ffffffffffffffffffffffffffffffffffffffffffffffffffffffffefffffc2f80151561163c57fe5b888e0991507ffffffffffffffffffffffffffffffffffffffffffffffffffffffffefffffc2f80151561166b57fe5b8b8b099050808214156116b1578284141561169a5761168b8d8d8d611078565b965096509650505050506116fb565b6116a2610cd4565b965096509650505050506116fb565b6116ea7ffffffffffffffffffffffffffffffffffffffffffffffffffffffffefffffc2f8015156116de57fe5b898d09838386886117bd565b809750819850829950505050505050505b96509650969350505050565b60008083148061171657508183145b806117215750600082145b1561172f57600090506117b7565b8183111561174657818381151561174257fe5b0692505b600080600190506000849050600086905060005b60008214151561179357818381151561176f57fe5b0490508384820286038384840286038095508196508297508398505050505061175a565b60008512156117ae57846000038703955050505050506117b7565b84955050505050505b92915050565b6000806000806000806000807ffffffffffffffffffffffffffffffffffffffffffffffffffffffffefffffc2f8015156117f357fe5b8a7ffffffffffffffffffffffffffffffffffffffffffffffffffffffffefffffc2f038a0890507ffffffffffffffffffffffffffffffffffffffffffffffffffffffffefffffc2f80151561184457fe5b8b7ffffffffffffffffffffffffffffffffffffffffffffffffffffffffefffffc2f038d0894507ffffffffffffffffffffffffffffffffffffffffffffffffffffffffefffffc2f80151561189557fe5b85860993507ffffffffffffffffffffffffffffffffffffffffffffffffffffffffefffffc2f8015156118c457fe5b81820991507ffffffffffffffffffffffffffffffffffffffffffffffffffffffffefffffc2f8015156118f357fe5b8d830991507ffffffffffffffffffffffffffffffffffffffffffffffffffffffffefffffc2f80151561192257fe5b8c8c089a507ffffffffffffffffffffffffffffffffffffffffffffffffffffffffefffffc2f80151561195157fe5b848c099a507ffffffffffffffffffffffffffffffffffffffffffffffffffffffffefffffc2f80151561198057fe5b8b7ffffffffffffffffffffffffffffffffffffffffffffffffffffffffefffffc2f03830891507ffffffffffffffffffffffffffffffffffffffffffffffffffffffffefffffc2f8015156119d157fe5b82860997507ffffffffffffffffffffffffffffffffffffffffffffffffffffffffefffffc2f801515611a0057fe5b85850992507ffffffffffffffffffffffffffffffffffffffffffffffffffffffffefffffc2f801515611a2f57fe5b848d099b507ffffffffffffffffffffffffffffffffffffffffffffffffffffffffefffffc2f801515611a5e57fe5b827ffffffffffffffffffffffffffffffffffffffffffffffffffffffffefffffc2f038d089b507ffffffffffffffffffffffffffffffffffffffffffffffffffffffffefffffc2f801515611aaf57fe5b8c820990507ffffffffffffffffffffffffffffffffffffffffffffffffffffffffefffffc2f801515611ade57fe5b838a0998507ffffffffffffffffffffffffffffffffffffffffffffffffffffffffefffffc2f801515611b0d57fe5b897ffffffffffffffffffffffffffffffffffffffffffffffffffffffffefffffc2f03820896507ffffffffffffffffffffffffffffffffffffffffffffffffffffffffefffffc2f801515611b5e57fe5b8d840995505050505050955095509592505050565b60606040519081016040528060039060208202803883398082019150509050509056fea165627a7a72305820b0b14eec1ccbed25fe4aaa8bdaf32ef666ee09844c712a045944f1d69a4572570029",
  "source": "pragma solidity ^0.5.0;\n\ncontract ECsecp256k1 {\n\n    // Set parameters for secp256k1 curve.\n    uint constant a = 0;\n    uint constant b = 7;\n    uint constant gx = 0x79BE667EF9DCBBAC55A06295CE870B07029BFCDB2DCE28D959F2815B16F81798;\n    uint constant gy = 0x483ADA7726A3C4655DA4FBFC0E1108A8FD17B448A68554199C47D08FFB10D4B8;\n    uint constant p = 0xFFFFFFFFFFFFFFFFFFFFFFFFFFFFFFFFFFFFFFFFFFFFFFFFFFFFFFFEFFFFFC2F;\n    uint constant n = 0xFFFFFFFFFFFFFFFFFFFFFFFFFFFFFFFEBAAEDCE6AF48A03BBFD25E8CD0364141;\n\n    uint constant lowSmax = 0x7FFFFFFFFFFFFFFFFFFFFFFFFFFFFFFF5D576E7357A4501DDFE92F46681B20A0;\n    \n\n    /**\n     * @dev Inverse of u in the field of modulo m.\n     */\n    function inverseMod(uint u, uint m) internal pure\n        returns (uint)\n    {\n        if (u == 0 || u == m || m == 0)\n            return 0;\n        if (u > m)\n            u = u % m;\n\n        int t1;\n        int t2 = 1;\n        uint r1 = m;\n        uint r2 = u;\n        uint q;\n\n        while (r2 != 0) {\n            q = r1 / r2;\n            (t1, t2, r1, r2) = (t2, t1 - int(q) * t2, r2, r1 - q * r2);\n        }\n\n        if (t1 < 0)\n            return (m - uint(-t1));\n\n        return uint(t1);\n    }\n\n    /**\n     * @dev Transform affine coordinates into projective coordinates.\n     */\n    function toProjectivePoint(uint x0, uint y0) public pure\n        returns (uint[3] memory P)\n    {\n        P[2] = addmod(0, 1, p);\n        P[0] = mulmod(x0, P[2], p);\n        P[1] = mulmod(y0, P[2], p);\n    }\n\n    /**\n     * @dev Add two points in affine coordinates and return projective point.\n     */\n    function addAndReturnProjectivePoint(uint x1, uint y1, uint x2, uint y2) public pure\n        returns (uint[3] memory P)\n    {\n        uint x;\n        uint y;\n        (x, y) = add(x1, y1, x2, y2);\n        P = toProjectivePoint(x, y);\n    }\n\n    /**\n     * @dev Transform from projective to affine coordinates. req\n     */\n    function toAffinePoint(uint x0, uint y0, uint z0) public pure\n        returns (uint x1, uint y1)\n    {\n        uint z0Inv;\n        z0Inv = inverseMod(z0, p);\n        x1 = mulmod(x0, z0Inv, p);\n        y1 = mulmod(y0, z0Inv, p);\n    }\n\n    /**\n     * @dev Return the zero curve in projective coordinates.\n     */\n    function zeroProj() public pure\n        returns (uint x, uint y, uint z)\n    {\n        return (0, 1, 0);\n    }\n\n    /**\n     * @dev Return the zero curve in affine coordinates.\n     */\n    function zeroAffine() public pure\n        returns (uint x, uint y)\n    {\n        return (0, 0);\n    }\n\n    /**\n     * @dev Check if the curve is the zero curve.\n     */\n    function isZeroCurve(uint x0, uint y0) public pure\n        returns (bool isZero)\n    {\n        if(x0 == 0 && y0 == 0) {\n            return true;\n        }\n        return false;\n    }\n\n    /**\n     * @dev Check if a point in affine coordinates is on the curve.\n     */\n    function isOnCurve(uint x, uint y) public pure\n        returns (bool)\n    {\n        if (0 == x || x == p || 0 == y || y == p) {\n            return false;\n        }\n\n        uint LHS = mulmod(y, y, p); // y^2\n        uint RHS = mulmod(mulmod(x, x, p), x, p); // x^3\n\n        if (a != 0) {\n            RHS = addmod(RHS, mulmod(x, a, p), p); // x^3 + a*x\n        }\n        if (b != 0) {\n            RHS = addmod(RHS, b, p); // x^3 + a*x + b\n        }\n\n        return LHS == RHS;\n    }\n\n    /**\n     * @dev Double an elliptic curve point in projective coordinates. See\n     * https://www.nayuki.io/page/elliptic-curve-point-addition-in-projective-coordinates\n     */\n    function twiceProj(uint x0, uint y0, uint z0) public pure\n        returns (uint x1, uint y1, uint z1)\n    {\n        uint t;\n        uint u;\n        uint v;\n        uint w;\n\n        if(isZeroCurve(x0, y0)) {\n            return zeroProj();\n        }\n\n        u = mulmod(y0, z0, p);\n        u = mulmod(u, 2, p);\n\n        v = mulmod(u, x0, p);\n        v = mulmod(v, y0, p);\n        v = mulmod(v, 2, p);\n\n        x0 = mulmod(x0, x0, p);\n        t = mulmod(x0, 3, p);\n\n        z0 = mulmod(z0, z0, p);\n        z0 = mulmod(z0, a, p);\n        t = addmod(t, z0, p);\n\n        w = mulmod(t, t, p);\n        x0 = mulmod(2, v, p);\n        w = addmod(w, p-x0, p);\n\n        x0 = addmod(v, p-w, p);\n        x0 = mulmod(t, x0, p);\n        y0 = mulmod(y0, u, p);\n        y0 = mulmod(y0, y0, p);\n        y0 = mulmod(2, y0, p);\n        y1 = addmod(x0, p-y0, p);\n\n        x1 = mulmod(u, w, p);\n\n        z1 = mulmod(u, u, p);\n        z1 = mulmod(z1, u, p);\n    }\n\n    /**\n     * @dev Add two elliptic curve points in projective coordinates. See\n     * https://www.nayuki.io/page/elliptic-curve-point-addition-in-projective-coordinates\n     */\n    function addProj(uint x0, uint y0, uint z0, uint x1, uint y1, uint z1) public pure\n        returns (uint x2, uint y2, uint z2)\n    {\n        uint t0;\n        uint t1;\n        uint u0;\n        uint u1;\n\n        if (isZeroCurve(x0, y0)) {\n            return (x1, y1, z1);\n        }\n        else if (isZeroCurve(x1, y1)) {\n            return (x0, y0, z0);\n        }\n\n        t0 = mulmod(y0, z1, p);\n        t1 = mulmod(y1, z0, p);\n\n        u0 = mulmod(x0, z1, p);\n        u1 = mulmod(x1, z0, p);\n\n        if (u0 == u1) {\n            if (t0 == t1) {\n                return twiceProj(x0, y0, z0);\n            }\n            else {\n                return zeroProj();\n            }\n        }\n\n        (x2, y2, z2) = addProj2(mulmod(z0, z1, p), u0, u1, t1, t0);\n    }\n\n    /**\n     * @dev Helper function that splits addProj to avoid too many local variables.\n     */\n    function addProj2(uint v, uint u0, uint u1, uint t1, uint t0) private pure\n        returns (uint x2, uint y2, uint z2)\n    {\n        uint u;\n        uint u2;\n        uint u3;\n        uint w;\n        uint t;\n\n        t = addmod(t0, p-t1, p);\n        u = addmod(u0, p-u1, p);\n        u2 = mulmod(u, u, p);\n\n        w = mulmod(t, t, p);\n        w = mulmod(w, v, p);\n        u1 = addmod(u1, u0, p);\n        u1 = mulmod(u1, u2, p);\n        w = addmod(w, p-u1, p);\n\n        x2 = mulmod(u, w, p);\n\n        u3 = mulmod(u2, u, p);\n        u0 = mulmod(u0, u2, p);\n        u0 = addmod(u0, p-w, p);\n        t = mulmod(t, u0, p);\n        t0 = mulmod(t0, u3, p);\n\n        y2 = addmod(t, p-t0, p);\n\n        z2 = mulmod(u3, v, p);\n    }\n\n    /**\n     * @dev Add two elliptic curve points in affine coordinates.\n     */\n    function add(uint x0, uint y0, uint x1, uint y1) public pure\n        returns (uint, uint)\n    {\n        uint z0;\n\n        (x0, y0, z0) = addProj(x0, y0, 1, x1, y1, 1);\n\n        return toAffinePoint(x0, y0, z0);\n    }\n\n    /**\n     * @dev Double an elliptic curve point in affine coordinates.\n     */\n    function twice(uint x0, uint y0) public pure\n        returns (uint, uint)\n    {\n        uint z0;\n\n        (x0, y0, z0) = twiceProj(x0, y0, 1);\n\n        return toAffinePoint(x0, y0, z0);\n    }\n\n    /**\n     * @dev Multiply an elliptic curve point by a 2 power base (i.e., (2^exp)*P)).\n     */\n    function multiplyPowerBase2(uint x0, uint y0, uint exp) public pure\n        returns (uint, uint)\n    {\n        uint base2X = x0;\n        uint base2Y = y0;\n        uint base2Z = 1;\n\n        for(uint i = 0; i < exp; i++) {\n            (base2X, base2Y, base2Z) = twiceProj(base2X, base2Y, base2Z);\n        }\n\n        return toAffinePoint(base2X, base2Y, base2Z);\n    }\n\n    /**\n     * @dev Multiply an elliptic curve point by a scalar.\n     */\n    function multiplyScalar(uint x0, uint y0, uint scalar) public pure\n        returns (uint x1, uint y1)\n    {\n        if(scalar == 0) {\n            return zeroAffine();\n        }\n        else if (scalar == 1) {\n            return (x0, y0);\n        }\n        else if (scalar == 2) {\n            return twice(x0, y0);\n        }\n\n        uint base2X = x0;\n        uint base2Y = y0;\n        uint base2Z = 1;\n        uint z1 = 1;\n        x1 = x0;\n        y1 = y0;\n\n        if(scalar%2 == 0) {\n            x1 = y1 = 0;\n        }\n\n        scalar = scalar >> 1;\n\n        while(scalar > 0) {\n            (base2X, base2Y, base2Z) = twiceProj(base2X, base2Y, base2Z);\n\n            if(scalar%2 == 1) {\n                (x1, y1, z1) = addProj(base2X, base2Y, base2Z, x1, y1, z1);\n            }\n\n            scalar = scalar >> 1;\n        }\n\n        return toAffinePoint(x1, y1, z1);\n    }\n\n    /**\n     * @dev Multiply the curve's generator point by a scalar.\n     */\n    function multipleGeneratorByScalar(uint scalar) public pure\n        returns (uint, uint)\n    {\n        return multiplyScalar(gx, gy, scalar);\n    }\n\n    /**\n     * @dev Validate combination of message, signature, and public key.\n     */\n    function validateSignature(bytes32 messageHash, uint[2] memory rs, uint[2] memory publicKey) public view\n        returns (bool)\n    {\n        \n        if(rs[0] == 0 || rs[0] >= n || rs[1] == 0) {\n            return false;\n        }\n        if (!isOnCurve(publicKey[0], publicKey[1])) {\n            return false;\n        }\n\n        uint x1;\n        uint x2;\n        uint y1;\n        uint y2;\n\n        uint sInv = inverseMod(rs[1], n);\n        (x1, y1) = multiplyScalar(gx, gy, mulmod(uint(messageHash), sInv, n));\n        (x2, y2) = multiplyScalar(publicKey[0], publicKey[1], mulmod(rs[0], sInv, n));\n        uint[3] memory P = addAndReturnProjectivePoint(x1, y1, x2, y2);\n\n        if (P[2] == 0) {\n            return false;\n        }\n\n        uint Px = inverseMod(P[2], p);\n        Px = mulmod(P[0], mulmod(Px, Px, p), p);\n        \n        return Px % n == rs[0];\n    }\n}",
  "sourcePath": "/home/nimba/Documents/Aratrika/elliptic-curve-solidity/contracts/curves/ECsecp256k1.sol",
  "compiler": {
    "name": "solc",
    "version": "0.5.1+commit.c8a2cb62.Emscripten.clang"
  },
  "schemaVersion": "3.4.3",
  "updatedAt": "2021-08-27T09:56:09.247Z",
  "networkType": "ethereum",
  "devdoc": {
    "methods": {
      "add(uint256,uint256,uint256,uint256)": {
        "details": "Add two elliptic curve points in affine coordinates."
      },
      "addAndReturnProjectivePoint(uint256,uint256,uint256,uint256)": {
        "details": "Add two points in affine coordinates and return projective point."
      },
      "addProj(uint256,uint256,uint256,uint256,uint256,uint256)": {
        "details": "Add two elliptic curve points in projective coordinates. See https://www.nayuki.io/page/elliptic-curve-point-addition-in-projective-coordinates"
      },
      "isOnCurve(uint256,uint256)": {
        "details": "Check if a point in affine coordinates is on the curve."
      },
      "isZeroCurve(uint256,uint256)": {
        "details": "Check if the curve is the zero curve."
      },
      "multipleGeneratorByScalar(uint256)": {
        "details": "Multiply the curve's generator point by a scalar."
      },
      "multiplyPowerBase2(uint256,uint256,uint256)": {
        "details": "Multiply an elliptic curve point by a 2 power base (i.e., (2^exp)*P))."
      },
      "multiplyScalar(uint256,uint256,uint256)": {
        "details": "Multiply an elliptic curve point by a scalar."
      },
      "toAffinePoint(uint256,uint256,uint256)": {
        "details": "Transform from projective to affine coordinates. req"
      },
      "toProjectivePoint(uint256,uint256)": {
        "details": "Transform affine coordinates into projective coordinates."
      },
      "twice(uint256,uint256)": {
        "details": "Double an elliptic curve point in affine coordinates."
      },
      "twiceProj(uint256,uint256,uint256)": {
        "details": "Double an elliptic curve point in projective coordinates. See https://www.nayuki.io/page/elliptic-curve-point-addition-in-projective-coordinates"
      },
      "validateSignature(bytes32,uint256[2],uint256[2])": {
        "details": "Validate combination of message, signature, and public key."
      },
      "zeroAffine()": {
        "details": "Return the zero curve in affine coordinates."
      },
      "zeroProj()": {
        "details": "Return the zero curve in projective coordinates."
      }
    }
  },
  "userdoc": {
    "methods": {}
  }
}