{
  "contractName": "EllipticCurve",
  "abi": [
    {
      "constant": true,
      "inputs": [
        {
          "name": "x0",
          "type": "uint256"
        },
        {
          "name": "y0",
          "type": "uint256"
        }
      ],
      "name": "toProjectivePoint",
      "outputs": [
        {
          "name": "P",
          "type": "uint256[3]"
        }
      ],
      "payable": false,
      "stateMutability": "pure",
      "type": "function"
    },
    {
      "constant": true,
      "inputs": [
        {
          "name": "x1",
          "type": "uint256"
        },
        {
          "name": "y1",
          "type": "uint256"
        },
        {
          "name": "x2",
          "type": "uint256"
        },
        {
          "name": "y2",
          "type": "uint256"
        }
      ],
      "name": "addAndReturnProjectivePoint",
      "outputs": [
        {
          "name": "P",
          "type": "uint256[3]"
        }
      ],
      "payable": false,
      "stateMutability": "pure",
      "type": "function"
    },
    {
      "constant": true,
      "inputs": [
        {
          "name": "x0",
          "type": "uint256"
        },
        {
          "name": "y0",
          "type": "uint256"
        },
        {
          "name": "z0",
          "type": "uint256"
        }
      ],
      "name": "toAffinePoint",
      "outputs": [
        {
          "name": "x1",
          "type": "uint256"
        },
        {
          "name": "y1",
          "type": "uint256"
        }
      ],
      "payable": false,
      "stateMutability": "pure",
      "type": "function"
    },
    {
      "constant": true,
      "inputs": [],
      "name": "zeroProj",
      "outputs": [
        {
          "name": "x",
          "type": "uint256"
        },
        {
          "name": "y",
          "type": "uint256"
        },
        {
          "name": "z",
          "type": "uint256"
        }
      ],
      "payable": false,
      "stateMutability": "pure",
      "type": "function"
    },
    {
      "constant": true,
      "inputs": [],
      "name": "zeroAffine",
      "outputs": [
        {
          "name": "x",
          "type": "uint256"
        },
        {
          "name": "y",
          "type": "uint256"
        }
      ],
      "payable": false,
      "stateMutability": "pure",
      "type": "function"
    },
    {
      "constant": true,
      "inputs": [
        {
          "name": "x0",
          "type": "uint256"
        },
        {
          "name": "y0",
          "type": "uint256"
        }
      ],
      "name": "isZeroCurve",
      "outputs": [
        {
          "name": "isZero",
          "type": "bool"
        }
      ],
      "payable": false,
      "stateMutability": "pure",
      "type": "function"
    },
    {
      "constant": true,
      "inputs": [
        {
          "name": "x",
          "type": "uint256"
        },
        {
          "name": "y",
          "type": "uint256"
        }
      ],
      "name": "isOnCurve",
      "outputs": [
        {
          "name": "",
          "type": "bool"
        }
      ],
      "payable": false,
      "stateMutability": "pure",
      "type": "function"
    },
    {
      "constant": true,
      "inputs": [
        {
          "name": "x0",
          "type": "uint256"
        },
        {
          "name": "y0",
          "type": "uint256"
        },
        {
          "name": "z0",
          "type": "uint256"
        }
      ],
      "name": "twiceProj",
      "outputs": [
        {
          "name": "x1",
          "type": "uint256"
        },
        {
          "name": "y1",
          "type": "uint256"
        },
        {
          "name": "z1",
          "type": "uint256"
        }
      ],
      "payable": false,
      "stateMutability": "pure",
      "type": "function"
    },
    {
      "constant": true,
      "inputs": [
        {
          "name": "x0",
          "type": "uint256"
        },
        {
          "name": "y0",
          "type": "uint256"
        },
        {
          "name": "z0",
          "type": "uint256"
        },
        {
          "name": "x1",
          "type": "uint256"
        },
        {
          "name": "y1",
          "type": "uint256"
        },
        {
          "name": "z1",
          "type": "uint256"
        }
      ],
      "name": "addProj",
      "outputs": [
        {
          "name": "x2",
          "type": "uint256"
        },
        {
          "name": "y2",
          "type": "uint256"
        },
        {
          "name": "z2",
          "type": "uint256"
        }
      ],
      "payable": false,
      "stateMutability": "pure",
      "type": "function"
    },
    {
      "constant": true,
      "inputs": [
        {
          "name": "x0",
          "type": "uint256"
        },
        {
          "name": "y0",
          "type": "uint256"
        },
        {
          "name": "x1",
          "type": "uint256"
        },
        {
          "name": "y1",
          "type": "uint256"
        }
      ],
      "name": "add",
      "outputs": [
        {
          "name": "",
          "type": "uint256"
        },
        {
          "name": "",
          "type": "uint256"
        }
      ],
      "payable": false,
      "stateMutability": "pure",
      "type": "function"
    },
    {
      "constant": true,
      "inputs": [
        {
          "name": "x0",
          "type": "uint256"
        },
        {
          "name": "y0",
          "type": "uint256"
        }
      ],
      "name": "twice",
      "outputs": [
        {
          "name": "",
          "type": "uint256"
        },
        {
          "name": "",
          "type": "uint256"
        }
      ],
      "payable": false,
      "stateMutability": "pure",
      "type": "function"
    },
    {
      "constant": true,
      "inputs": [
        {
          "name": "x0",
          "type": "uint256"
        },
        {
          "name": "y0",
          "type": "uint256"
        },
        {
          "name": "exp",
          "type": "uint256"
        }
      ],
      "name": "multiplyPowerBase2",
      "outputs": [
        {
          "name": "",
          "type": "uint256"
        },
        {
          "name": "",
          "type": "uint256"
        }
      ],
      "payable": false,
      "stateMutability": "pure",
      "type": "function"
    },
    {
      "constant": true,
      "inputs": [
        {
          "name": "x0",
          "type": "uint256"
        },
        {
          "name": "y0",
          "type": "uint256"
        },
        {
          "name": "scalar",
          "type": "uint256"
        }
      ],
      "name": "multiplyScalar",
      "outputs": [
        {
          "name": "x1",
          "type": "uint256"
        },
        {
          "name": "y1",
          "type": "uint256"
        }
      ],
      "payable": false,
      "stateMutability": "pure",
      "type": "function"
    },
    {
      "constant": true,
      "inputs": [
        {
          "name": "scalar",
          "type": "uint256"
        }
      ],
      "name": "multipleGeneratorByScalar",
      "outputs": [
        {
          "name": "",
          "type": "uint256"
        },
        {
          "name": "",
          "type": "uint256"
        }
      ],
      "payable": false,
      "stateMutability": "pure",
      "type": "function"
    },
    {
      "constant": true,
      "inputs": [
        {
          "name": "message",
          "type": "bytes32"
        },
        {
          "name": "rs",
          "type": "uint256[2]"
        },
        {
          "name": "Q",
          "type": "uint256[2]"
        }
      ],
      "name": "validateSignature",
      "outputs": [
        {
          "name": "",
          "type": "bool"
        }
      ],
      "payable": false,
      "stateMutability": "pure",
      "type": "function"
    }
  ],
  "bytecode": "0x608060405234801561001057600080fd5b50611c5e806100206000396000f3fe6080604052600436106100d5576000357c01000000000000000000000000000000000000000000000000000000009004806304e960d7146100da57806309d3ef31146101af5780630afb4ddc1461020f5780630b0dbcfa1461026557806314c67060146102c2578063322b24aa146102fb578063675ca04314610365578063713eca28146103cf57806372fb4a14146104645780637ec8da8d146104ce57806384dfba461461054f578063c30cfa2d14610581578063c80edca4146105de578063e022d77c1461064f578063f214aba0146106c3575b600080fd5b3480156100e657600080fd5b50610195600480360360a08110156100fd57600080fd5b810190808035906020019092919080604001906002806020026040519081016040528092919082600260200280828437600081840152601f19601f820116905080830192505050505050919291929080604001906002806020026040519081016040528092919082600260200280828437600081840152601f19601f8201169050808301925050505050509192919290505050610752565b604051808215151515815260200191505060405180910390f35b3480156101bb57600080fd5b506101f2600480360360408110156101d257600080fd5b810190808035906020019092919080359060200190929190505050610a97565b604051808381526020018281526020019250505060405180910390f35b34801561021b57600080fd5b506102486004803603602081101561023257600080fd5b8101908080359060200190929190505050610acb565b604051808381526020018281526020019250505060405180910390f35b34801561027157600080fd5b506102a86004803603604081101561028857600080fd5b810190808035906020019092919080359060200190929190505050610b22565b604051808215151515815260200191505060405180910390f35b3480156102ce57600080fd5b506102d7610d51565b60405180848152602001838152602001828152602001935050505060405180910390f35b34801561030757600080fd5b506103486004803603606081101561031e57600080fd5b81019080803590602001909291908035906020019092919080359060200190929190505050610d6f565b604051808381526020018281526020019250505060405180910390f35b34801561037157600080fd5b506103b26004803603606081101561038857600080fd5b81019080803590602001909291908035906020019092919080359060200190929190505050610dcf565b604051808381526020018281526020019250505060405180910390f35b3480156103db57600080fd5b50610426600480360360808110156103f257600080fd5b8101908080359060200190929190803590602001909291908035906020019092919080359060200190929190505050610e67565b6040518082600360200280838360005b83811015610451578082015181840152602081019050610436565b5050505090500191505060405180910390f35b34801561047057600080fd5b506104b16004803603606081101561048757600080fd5b81019080803590602001909291908035906020019092919080359060200190929190505050610e9c565b604051808381526020018281526020019250505060405180910390f35b3480156104da57600080fd5b50610511600480360360408110156104f157600080fd5b810190808035906020019092919080359060200190929190505050610fb2565b6040518082600360200280838360005b8381101561053c578082015181840152602081019050610521565b5050505090500191505060405180910390f35b34801561055b57600080fd5b506105646110b7565b604051808381526020018281526020019250505060405180910390f35b34801561058d57600080fd5b506105c4600480360360408110156105a457600080fd5b8101908080359060200190929190803590602001909291905050506110cb565b604051808215151515815260200191505060405180910390f35b3480156105ea57600080fd5b5061062b6004803603606081101561060157600080fd5b810190808035906020019092919080359060200190929190803590602001909291905050506110f5565b60405180848152602001838152602001828152602001935050505060405180910390f35b34801561065b57600080fd5b506106a66004803603608081101561067257600080fd5b81019080803590602001909291908035906020019092919080359060200190929190803590602001909291905050506115c9565b604051808381526020018281526020019250505060405180910390f35b3480156106cf57600080fd5b5061072e600480360360c08110156106e657600080fd5b81019080803590602001909291908035906020019092919080359060200190929190803590602001909291908035906020019092919080359060200190929190505050611603565b60405180848152602001838152602001828152602001935050505060405180910390f35b60008083600060028110151561076457fe5b602002015114806107a857507fffffffff00000000ffffffffffffffffbce6faada7179e84f3b9cac2fc6325518360006002811015156107a057fe5b602002015110155b806107c6575060008360016002811015156107bf57fe5b6020020151145b156107d45760009050610a90565b6108048260006002811015156107e657fe5b60200201518360016002811015156107fa57fe5b6020020151610b22565b15156108135760009050610a90565b600080600080600061085888600160028110151561082d57fe5b60200201517fffffffff00000000ffffffffffffffffbce6faada7179e84f3b9cac2fc6325516117a3565b90506108d57f6b17d1f2e12c4247f8bce6e563a440f277037d812deb33a0f4a13945d898c2967f4fe342e2fe1a7f9b8ee7eb4a7c0f9e162bce33576b315ececbb6406837bf51f57fffffffff00000000ffffffffffffffffbce6faada7179e84f3b9cac2fc6325518015156108c957fe5b848d6001900409610e9c565b809450819650505061094d8760006002811015156108ef57fe5b602002015188600160028110151561090357fe5b60200201517fffffffff00000000ffffffffffffffffbce6faada7179e84f3b9cac2fc63255180151561093257fe5b848c600060028110151561094257fe5b602002015109610e9c565b809350819550505061095d611c0f565b61096986858786610e67565b9050600081600260038110151561097c57fe5b602002015114156109965760009650505050505050610a90565b60006109d58260026003811015156109aa57fe5b60200201517fffffffff00000001000000000000000000000000ffffffffffffffffffffffff6117a3565b90507fffffffff00000001000000000000000000000000ffffffffffffffffffffffff801515610a0157fe5b7fffffffff00000001000000000000000000000000ffffffffffffffffffffffff801515610a2b57fe5b828309836000600381101515610a3d57fe5b6020020151099050896000600281101515610a5457fe5b60200201517fffffffff00000000ffffffffffffffffbce6faada7179e84f3b9cac2fc63255182811515610a8457fe5b06149750505050505050505b9392505050565b6000806000610aa8858560016110f5565b809350819650829750505050610abf858583610dcf565b92509250509250929050565b600080610b197f6b17d1f2e12c4247f8bce6e563a440f277037d812deb33a0f4a13945d898c2967f4fe342e2fe1a7f9b8ee7eb4a7c0f9e162bce33576b315ececbb6406837bf51f585610e9c565b91509150915091565b60008260001480610b5257507fffffffff00000001000000000000000000000000ffffffffffffffffffffffff83145b80610b5d5750816000145b80610b8757507fffffffff00000001000000000000000000000000ffffffffffffffffffffffff82145b15610b955760009050610d4b565b60007fffffffff00000001000000000000000000000000ffffffffffffffffffffffff801515610bc157fe5b838409905060007fffffffff00000001000000000000000000000000ffffffffffffffffffffffff801515610bf257fe5b857fffffffff00000001000000000000000000000000ffffffffffffffffffffffff801515610c1d57fe5b87880909905060007fffffffff00000001000000000000000000000000fffffffffffffffffffffffc141515610cc9577fffffffff00000001000000000000000000000000ffffffffffffffffffffffff801515610c7757fe5b7fffffffff00000001000000000000000000000000ffffffffffffffffffffffff801515610ca157fe5b7fffffffff00000001000000000000000000000000fffffffffffffffffffffffc8709820890505b60007f5ac635d8aa3a93e7b3ebbd55769886bc651d06b0cc53b0f63bce3c3e27d2604b141515610d43577fffffffff00000001000000000000000000000000ffffffffffffffffffffffff801515610d1d57fe5b7f5ac635d8aa3a93e7b3ebbd55769886bc651d06b0cc53b0f63bce3c3e27d2604b820890505b808214925050505b92915050565b60008060008060016000829250819150809050925092509250909192565b6000806000859050600085905060006001905060008090505b86811015610db457610d9b8484846110f5565b8094508195508296505050508080600101915050610d88565b50610dc0838383610dcf565b94509450505050935093915050565b6000806000610dfe847fffffffff00000001000000000000000000000000ffffffffffffffffffffffff6117a3565b90507fffffffff00000001000000000000000000000000ffffffffffffffffffffffff801515610e2a57fe5b81870992507fffffffff00000001000000000000000000000000ffffffffffffffffffffffff801515610e5957fe5b818609915050935093915050565b610e6f611c0f565b600080610e7e878787876115c9565b8092508193505050610e908282610fb2565b92505050949350505050565b6000806000831415610eb957610eb06110b7565b91509150610faa565b6001831415610ecd57848491509150610faa565b6002831415610ee957610ee08585610a97565b91509150610faa565b600085905060008590506000600190506000600190508895508794506000600288811515610f1357fe5b061415610f2257600094508495505b600187908060020a820491505096505b6000871115610f9657610f468484846110f5565b8094508195508296505050506001600288811515610f6057fe5b061415610f8257610f75848484898986611603565b8093508197508298505050505b600187908060020a82049150509650610f32565b610fa1868683610dcf565b95509550505050505b935093915050565b610fba611c0f565b7fffffffff00000001000000000000000000000000ffffffffffffffffffffffff801515610fe457fe5b6001600008816002600381101515610ff857fe5b6020020181815250507fffffffff00000001000000000000000000000000ffffffffffffffffffffffff80151561102b57fe5b81600260038110151561103a57fe5b6020020151840981600060038110151561105057fe5b6020020181815250507fffffffff00000001000000000000000000000000ffffffffffffffffffffffff80151561108357fe5b81600260038110151561109257fe5b602002015183098160016003811015156110a857fe5b60200201818152505092915050565b600080600080819150809050915091509091565b600080831480156110dc5750600082145b156110ea57600190506110ef565b600090505b92915050565b600080600080600080600061110a8a8a6110cb565b1561112657611117610d51565b965096509650505050506115c0565b7fffffffff00000001000000000000000000000000ffffffffffffffffffffffff80151561115057fe5b888a0992507fffffffff00000001000000000000000000000000ffffffffffffffffffffffff80151561117f57fe5b6002840992507fffffffff00000001000000000000000000000000ffffffffffffffffffffffff8015156111af57fe5b8a840991507fffffffff00000001000000000000000000000000ffffffffffffffffffffffff8015156111de57fe5b89830991507fffffffff00000001000000000000000000000000ffffffffffffffffffffffff80151561120d57fe5b6002830991507fffffffff00000001000000000000000000000000ffffffffffffffffffffffff80151561123d57fe5b8a8b0999507fffffffff00000001000000000000000000000000ffffffffffffffffffffffff80151561126c57fe5b60038b0993507fffffffff00000001000000000000000000000000ffffffffffffffffffffffff80151561129c57fe5b88890997507fffffffff00000001000000000000000000000000ffffffffffffffffffffffff8015156112cb57fe5b7fffffffff00000001000000000000000000000000fffffffffffffffffffffffc890997507fffffffff00000001000000000000000000000000ffffffffffffffffffffffff80151561131a57fe5b88850893507fffffffff00000001000000000000000000000000ffffffffffffffffffffffff80151561134957fe5b84850990507fffffffff00000001000000000000000000000000ffffffffffffffffffffffff80151561137857fe5b8260020999507fffffffff00000001000000000000000000000000ffffffffffffffffffffffff8015156113a857fe5b8a7fffffffff00000001000000000000000000000000ffffffffffffffffffffffff03820890507fffffffff00000001000000000000000000000000ffffffffffffffffffffffff8015156113f957fe5b817fffffffff00000001000000000000000000000000ffffffffffffffffffffffff03830899507fffffffff00000001000000000000000000000000ffffffffffffffffffffffff80151561144a57fe5b8a850999507fffffffff00000001000000000000000000000000ffffffffffffffffffffffff80151561147957fe5b838a0998507fffffffff00000001000000000000000000000000ffffffffffffffffffffffff8015156114a857fe5b898a0998507fffffffff00000001000000000000000000000000ffffffffffffffffffffffff8015156114d757fe5b8960020998507fffffffff00000001000000000000000000000000ffffffffffffffffffffffff80151561150757fe5b897fffffffff00000001000000000000000000000000ffffffffffffffffffffffff038b0895507fffffffff00000001000000000000000000000000ffffffffffffffffffffffff80151561155857fe5b81840996507fffffffff00000001000000000000000000000000ffffffffffffffffffffffff80151561158757fe5b83840994507fffffffff00000001000000000000000000000000ffffffffffffffffffffffff8015156115b657fe5b8386099450505050505b93509350939050565b60008060006115de8787600188886001611603565b8093508198508299505050506115f5878783610dcf565b925092505094509492505050565b60008060008060008060006116188d8d6110cb565b1561162f5789898996509650965050505050611797565b6116398a8a6110cb565b15611650578c8c8c96509650965050505050611797565b7fffffffff00000001000000000000000000000000ffffffffffffffffffffffff80151561167a57fe5b888d0993507fffffffff00000001000000000000000000000000ffffffffffffffffffffffff8015156116a957fe5b8b8a0992507fffffffff00000001000000000000000000000000ffffffffffffffffffffffff8015156116d857fe5b888e0991507fffffffff00000001000000000000000000000000ffffffffffffffffffffffff80151561170757fe5b8b8b0990508082141561174d5782841415611736576117278d8d8d6110f5565b96509650965050505050611797565b61173e610d51565b96509650965050505050611797565b6117867fffffffff00000001000000000000000000000000ffffffffffffffffffffffff80151561177a57fe5b898d0983838688611859565b809750819850829950505050505050505b96509650969350505050565b6000808314806117b257508183145b806117bd5750600082145b156117cb5760009050611853565b818311156117e25781838115156117de57fe5b0692505b600080600190506000849050600086905060005b60008214151561182f57818381151561180b57fe5b049050838482028603838484028603809550819650829750839850505050506117f6565b600085121561184a5784600003870395505050505050611853565b84955050505050505b92915050565b6000806000806000806000807fffffffff00000001000000000000000000000000ffffffffffffffffffffffff80151561188f57fe5b8a7fffffffff00000001000000000000000000000000ffffffffffffffffffffffff038a0890507fffffffff00000001000000000000000000000000ffffffffffffffffffffffff8015156118e057fe5b8b7fffffffff00000001000000000000000000000000ffffffffffffffffffffffff038d0894507fffffffff00000001000000000000000000000000ffffffffffffffffffffffff80151561193157fe5b85860993507fffffffff00000001000000000000000000000000ffffffffffffffffffffffff80151561196057fe5b81820991507fffffffff00000001000000000000000000000000ffffffffffffffffffffffff80151561198f57fe5b8d830991507fffffffff00000001000000000000000000000000ffffffffffffffffffffffff8015156119be57fe5b8c8c089a507fffffffff00000001000000000000000000000000ffffffffffffffffffffffff8015156119ed57fe5b848c099a507fffffffff00000001000000000000000000000000ffffffffffffffffffffffff801515611a1c57fe5b8b7fffffffff00000001000000000000000000000000ffffffffffffffffffffffff03830891507fffffffff00000001000000000000000000000000ffffffffffffffffffffffff801515611a6d57fe5b82860997507fffffffff00000001000000000000000000000000ffffffffffffffffffffffff801515611a9c57fe5b85850992507fffffffff00000001000000000000000000000000ffffffffffffffffffffffff801515611acb57fe5b848d099b507fffffffff00000001000000000000000000000000ffffffffffffffffffffffff801515611afa57fe5b827fffffffff00000001000000000000000000000000ffffffffffffffffffffffff038d089b507fffffffff00000001000000000000000000000000ffffffffffffffffffffffff801515611b4b57fe5b8c820990507fffffffff00000001000000000000000000000000ffffffffffffffffffffffff801515611b7a57fe5b838a0998507fffffffff00000001000000000000000000000000ffffffffffffffffffffffff801515611ba957fe5b897fffffffff00000001000000000000000000000000ffffffffffffffffffffffff03820896507fffffffff00000001000000000000000000000000ffffffffffffffffffffffff801515611bfa57fe5b8d840995505050505050955095509592505050565b60606040519081016040528060039060208202803883398082019150509050509056fea165627a7a723058202a468bcc7d999fff0b89e43dd471c41bb833ca41ef81bf50aded6900d187e4dc0029",
  "source": "pragma solidity ^0.5.0;\n\n/**\n * @title   EllipticCurve\n *\n * @author  Tilman Drerup;\n *\n * @notice  Implements elliptic curve math; Parametrized for SECP256R1.\n *\n *          Includes components of code by Andreas Olofsson, Alexander Vlasov\n *          (https://github.com/BANKEX/CurveArithmetics), and Avi Asayag\n *          (https://github.com/orbs-network/elliptic-curve-solidity)\n *\n * @dev     NOTE: To disambiguate public keys when verifying signatures, activate\n *          condition 'rs[1] > lowSmax' in validateSignature().\n */\ncontract EllipticCurve {\n\n    // Set parameters for curve.\n    uint constant a = 0xFFFFFFFF00000001000000000000000000000000FFFFFFFFFFFFFFFFFFFFFFFC;\n    uint constant b = 0x5AC635D8AA3A93E7B3EBBD55769886BC651D06B0CC53B0F63BCE3C3E27D2604B;\n    uint constant gx = 0x6B17D1F2E12C4247F8BCE6E563A440F277037D812DEB33A0F4A13945D898C296;\n    uint constant gy = 0x4FE342E2FE1A7F9B8EE7EB4A7C0F9E162BCE33576B315ECECBB6406837BF51F5;\n    uint constant p = 0xFFFFFFFF00000001000000000000000000000000FFFFFFFFFFFFFFFFFFFFFFFF;\n    uint constant n = 0xFFFFFFFF00000000FFFFFFFFFFFFFFFFBCE6FAADA7179E84F3B9CAC2FC632551;\n\n    uint constant lowSmax = 0x7FFFFFFFFFFFFFFFFFFFFFFFFFFFFFFF5D576E7357A4501DDFE92F46681B20A0;\n\n    /**\n     * @dev Inverse of u in the field of modulo m.\n     */\n    function inverseMod(uint u, uint m) internal pure\n        returns (uint)\n    {\n        if (u == 0 || u == m || m == 0)\n            return 0;\n        if (u > m)\n            u = u % m;\n\n        int t1;\n        int t2 = 1;\n        uint r1 = m;\n        uint r2 = u;\n        uint q;\n\n        while (r2 != 0) {\n            q = r1 / r2;\n            (t1, t2, r1, r2) = (t2, t1 - int(q) * t2, r2, r1 - q * r2);\n        }\n\n        if (t1 < 0)\n            return (m - uint(-t1));\n\n        return uint(t1);\n    }\n\n    /**\n     * @dev Transform affine coordinates into projective coordinates.\n     */\n    function toProjectivePoint(uint x0, uint y0) public pure\n        returns (uint[3] memory P)\n    {\n        P[2] = addmod(0, 1, p);\n        P[0] = mulmod(x0, P[2], p);\n        P[1] = mulmod(y0, P[2], p);\n    }\n\n    /**\n     * @dev Add two points in affine coordinates and return projective point.\n     */\n    function addAndReturnProjectivePoint(uint x1, uint y1, uint x2, uint y2) public pure\n        returns (uint[3] memory P)\n    {\n        uint x;\n        uint y;\n        (x, y) = add(x1, y1, x2, y2);\n        P = toProjectivePoint(x, y);\n    }\n\n    /**\n     * @dev Transform from projective to affine coordinates.\n     */\n    function toAffinePoint(uint x0, uint y0, uint z0) public pure\n        returns (uint x1, uint y1)\n    {\n        uint z0Inv;\n        z0Inv = inverseMod(z0, p);\n        x1 = mulmod(x0, z0Inv, p);\n        y1 = mulmod(y0, z0Inv, p);\n    }\n\n    /**\n     * @dev Return the zero curve in projective coordinates.\n     */\n    function zeroProj() public pure\n        returns (uint x, uint y, uint z)\n    {\n        return (0, 1, 0);\n    }\n\n    /**\n     * @dev Return the zero curve in affine coordinates.\n     */\n    function zeroAffine() public pure\n        returns (uint x, uint y)\n    {\n        return (0, 0);\n    }\n\n    /**\n     * @dev Check if the curve is the zero curve.\n     */\n    function isZeroCurve(uint x0, uint y0) public pure\n        returns (bool isZero)\n    {\n        if(x0 == 0 && y0 == 0) {\n            return true;\n        }\n        return false;\n    }\n\n    /**\n     * @dev Check if a point in affine coordinates is on the curve.\n     */\n    function isOnCurve(uint x, uint y) public pure\n        returns (bool)\n    {\n        if (0 == x || x == p || 0 == y || y == p) {\n            return false;\n        }\n\n        uint LHS = mulmod(y, y, p); // y^2\n        uint RHS = mulmod(mulmod(x, x, p), x, p); // x^3\n\n        if (a != 0) {\n            RHS = addmod(RHS, mulmod(x, a, p), p); // x^3 + a*x\n        }\n        if (b != 0) {\n            RHS = addmod(RHS, b, p); // x^3 + a*x + b\n        }\n\n        return LHS == RHS;\n    }\n\n    /**\n     * @dev Double an elliptic curve point in projective coordinates. See\n     * https://www.nayuki.io/page/elliptic-curve-point-addition-in-projective-coordinates\n     */\n    function twiceProj(uint x0, uint y0, uint z0) public pure\n        returns (uint x1, uint y1, uint z1)\n    {\n        uint t;\n        uint u;\n        uint v;\n        uint w;\n\n        if(isZeroCurve(x0, y0)) {\n            return zeroProj();\n        }\n\n        u = mulmod(y0, z0, p);\n        u = mulmod(u, 2, p);\n\n        v = mulmod(u, x0, p);\n        v = mulmod(v, y0, p);\n        v = mulmod(v, 2, p);\n\n        x0 = mulmod(x0, x0, p);\n        t = mulmod(x0, 3, p);\n\n        z0 = mulmod(z0, z0, p);\n        z0 = mulmod(z0, a, p);\n        t = addmod(t, z0, p);\n\n        w = mulmod(t, t, p);\n        x0 = mulmod(2, v, p);\n        w = addmod(w, p-x0, p);\n\n        x0 = addmod(v, p-w, p);\n        x0 = mulmod(t, x0, p);\n        y0 = mulmod(y0, u, p);\n        y0 = mulmod(y0, y0, p);\n        y0 = mulmod(2, y0, p);\n        y1 = addmod(x0, p-y0, p);\n\n        x1 = mulmod(u, w, p);\n\n        z1 = mulmod(u, u, p);\n        z1 = mulmod(z1, u, p);\n    }\n\n    /**\n     * @dev Add two elliptic curve points in projective coordinates. See\n     * https://www.nayuki.io/page/elliptic-curve-point-addition-in-projective-coordinates\n     */\n    function addProj(uint x0, uint y0, uint z0, uint x1, uint y1, uint z1) public pure\n        returns (uint x2, uint y2, uint z2)\n    {\n        uint t0;\n        uint t1;\n        uint u0;\n        uint u1;\n\n        if (isZeroCurve(x0, y0)) {\n            return (x1, y1, z1);\n        }\n        else if (isZeroCurve(x1, y1)) {\n            return (x0, y0, z0);\n        }\n\n        t0 = mulmod(y0, z1, p);\n        t1 = mulmod(y1, z0, p);\n\n        u0 = mulmod(x0, z1, p);\n        u1 = mulmod(x1, z0, p);\n\n        if (u0 == u1) {\n            if (t0 == t1) {\n                return twiceProj(x0, y0, z0);\n            }\n            else {\n                return zeroProj();\n            }\n        }\n\n        (x2, y2, z2) = addProj2(mulmod(z0, z1, p), u0, u1, t1, t0);\n    }\n\n    /**\n     * @dev Helper function that splits addProj to avoid too many local variables.\n     */\n    function addProj2(uint v, uint u0, uint u1, uint t1, uint t0) private pure\n        returns (uint x2, uint y2, uint z2)\n    {\n        uint u;\n        uint u2;\n        uint u3;\n        uint w;\n        uint t;\n\n        t = addmod(t0, p-t1, p);\n        u = addmod(u0, p-u1, p);\n        u2 = mulmod(u, u, p);\n\n        w = mulmod(t, t, p);\n        w = mulmod(w, v, p);\n        u1 = addmod(u1, u0, p);\n        u1 = mulmod(u1, u2, p);\n        w = addmod(w, p-u1, p);\n\n        x2 = mulmod(u, w, p);\n\n        u3 = mulmod(u2, u, p);\n        u0 = mulmod(u0, u2, p);\n        u0 = addmod(u0, p-w, p);\n        t = mulmod(t, u0, p);\n        t0 = mulmod(t0, u3, p);\n\n        y2 = addmod(t, p-t0, p);\n\n        z2 = mulmod(u3, v, p);\n    }\n\n    /**\n     * @dev Add two elliptic curve points in affine coordinates.\n     */\n    function add(uint x0, uint y0, uint x1, uint y1) public pure\n        returns (uint, uint)\n    {\n        uint z0;\n\n        (x0, y0, z0) = addProj(x0, y0, 1, x1, y1, 1);\n\n        return toAffinePoint(x0, y0, z0);\n    }\n\n    /**\n     * @dev Double an elliptic curve point in affine coordinates.\n     */\n    function twice(uint x0, uint y0) public pure\n        returns (uint, uint)\n    {\n        uint z0;\n\n        (x0, y0, z0) = twiceProj(x0, y0, 1);\n\n        return toAffinePoint(x0, y0, z0);\n    }\n\n    /**\n     * @dev Multiply an elliptic curve point by a 2 power base (i.e., (2^exp)*P)).\n     */\n    function multiplyPowerBase2(uint x0, uint y0, uint exp) public pure\n        returns (uint, uint)\n    {\n        uint base2X = x0;\n        uint base2Y = y0;\n        uint base2Z = 1;\n\n        for(uint i = 0; i < exp; i++) {\n            (base2X, base2Y, base2Z) = twiceProj(base2X, base2Y, base2Z);\n        }\n\n        return toAffinePoint(base2X, base2Y, base2Z);\n    }\n\n    /**\n     * @dev Multiply an elliptic curve point by a scalar.\n     */\n    function multiplyScalar(uint x0, uint y0, uint scalar) public pure\n        returns (uint x1, uint y1)\n    {\n        if(scalar == 0) {\n            return zeroAffine();\n        }\n        else if (scalar == 1) {\n            return (x0, y0);\n        }\n        else if (scalar == 2) {\n            return twice(x0, y0);\n        }\n\n        uint base2X = x0;\n        uint base2Y = y0;\n        uint base2Z = 1;\n        uint z1 = 1;\n        x1 = x0;\n        y1 = y0;\n\n        if(scalar%2 == 0) {\n            x1 = y1 = 0;\n        }\n\n        scalar = scalar >> 1;\n\n        while(scalar > 0) {\n            (base2X, base2Y, base2Z) = twiceProj(base2X, base2Y, base2Z);\n\n            if(scalar%2 == 1) {\n                (x1, y1, z1) = addProj(base2X, base2Y, base2Z, x1, y1, z1);\n            }\n\n            scalar = scalar >> 1;\n        }\n\n        return toAffinePoint(x1, y1, z1);\n    }\n\n    /**\n     * @dev Multiply the curve's generator point by a scalar.\n     */\n    function multipleGeneratorByScalar(uint scalar) public pure\n        returns (uint, uint)\n    {\n        return multiplyScalar(gx, gy, scalar);\n    }\n\n    /**\n     * @dev Validate combination of message, signature, and public key.\n     */\n    function validateSignature(bytes32 message, uint[2] memory rs, uint[2] memory Q) public pure\n        returns (bool)\n    {\n\n        // To disambiguate between public key solutions, include comment below.\n        if(rs[0] == 0 || rs[0] >= n || rs[1] == 0) {// || rs[1] > lowSmax)\n            return false;\n        }\n        if (!isOnCurve(Q[0], Q[1])) {\n            return false;\n        }\n\n        uint x1;\n        uint x2;\n        uint y1;\n        uint y2;\n\n        uint sInv = inverseMod(rs[1], n);\n        (x1, y1) = multiplyScalar(gx, gy, mulmod(uint(message), sInv, n));\n        (x2, y2) = multiplyScalar(Q[0], Q[1], mulmod(rs[0], sInv, n));\n        uint[3] memory P = addAndReturnProjectivePoint(x1, y1, x2, y2);\n\n        if (P[2] == 0) {\n            return false;\n        }\n\n        uint Px = inverseMod(P[2], p);\n        Px = mulmod(P[0], mulmod(Px, Px, p), p);\n\n        return Px % n == rs[0];\n    }\n}",
  "sourcePath": "/home/nimba/Documents/Aratrika/elliptic-curve-solidity/contracts/curves/EllipticCurve.sol",
  "compiler": {
    "name": "solc",
    "version": "0.5.1+commit.c8a2cb62.Emscripten.clang"
  },
  "schemaVersion": "3.4.3",
  "updatedAt": "2021-08-25T11:51:41.046Z",
  "devdoc": {
    "author": "Tilman Drerup;",
    "details": "NOTE: To disambiguate public keys when verifying signatures, activate         condition 'rs[1] > lowSmax' in validateSignature().",
    "methods": {
      "add(uint256,uint256,uint256,uint256)": {
        "details": "Add two elliptic curve points in affine coordinates."
      },
      "addAndReturnProjectivePoint(uint256,uint256,uint256,uint256)": {
        "details": "Add two points in affine coordinates and return projective point."
      },
      "addProj(uint256,uint256,uint256,uint256,uint256,uint256)": {
        "details": "Add two elliptic curve points in projective coordinates. See https://www.nayuki.io/page/elliptic-curve-point-addition-in-projective-coordinates"
      },
      "isOnCurve(uint256,uint256)": {
        "details": "Check if a point in affine coordinates is on the curve."
      },
      "isZeroCurve(uint256,uint256)": {
        "details": "Check if the curve is the zero curve."
      },
      "multipleGeneratorByScalar(uint256)": {
        "details": "Multiply the curve's generator point by a scalar."
      },
      "multiplyPowerBase2(uint256,uint256,uint256)": {
        "details": "Multiply an elliptic curve point by a 2 power base (i.e., (2^exp)*P))."
      },
      "multiplyScalar(uint256,uint256,uint256)": {
        "details": "Multiply an elliptic curve point by a scalar."
      },
      "toAffinePoint(uint256,uint256,uint256)": {
        "details": "Transform from projective to affine coordinates."
      },
      "toProjectivePoint(uint256,uint256)": {
        "details": "Transform affine coordinates into projective coordinates."
      },
      "twice(uint256,uint256)": {
        "details": "Double an elliptic curve point in affine coordinates."
      },
      "twiceProj(uint256,uint256,uint256)": {
        "details": "Double an elliptic curve point in projective coordinates. See https://www.nayuki.io/page/elliptic-curve-point-addition-in-projective-coordinates"
      },
      "validateSignature(bytes32,uint256[2],uint256[2])": {
        "details": "Validate combination of message, signature, and public key."
      },
      "zeroAffine()": {
        "details": "Return the zero curve in affine coordinates."
      },
      "zeroProj()": {
        "details": "Return the zero curve in projective coordinates."
      }
    },
    "title": "EllipticCurve"
  },
  "userdoc": {
    "methods": {},
    "notice": "Implements elliptic curve math; Parametrized for SECP256R1. *          Includes components of code by Andreas Olofsson, Alexander Vlasov         (https://github.com/BANKEX/CurveArithmetics), and Avi Asayag         (https://github.com/orbs-network/elliptic-curve-solidity)"
  }
}